{
  "address": "0x5FbDB2315678afecb367f032d93F642f64180aa3",
  "abi": [
    {
      "inputs": [],
      "stateMutability": "nonpayable",
      "type": "constructor"
    },
    {
      "anonymous": false,
      "inputs": [
        {
          "components": [
            {
              "internalType": "address",
              "name": "posterAddress",
              "type": "address"
            },
            {
              "internalType": "string",
              "name": "ipfsLink",
              "type": "string"
            }
          ],
          "indexed": false,
          "internalType": "struct SocialMedia.Post",
          "name": "_newPost",
          "type": "tuple"
        },
        {
          "components": [
            {
              "internalType": "address",
              "name": "posterAddress",
              "type": "address"
            },
            {
              "internalType": "string",
              "name": "ipfsLink",
              "type": "string"
            }
          ],
          "indexed": false,
          "internalType": "struct SocialMedia.Post[]",
          "name": "_allPosts",
          "type": "tuple[]"
        }
      ],
      "name": "PostAppended",
      "type": "event"
    },
    {
      "inputs": [],
      "name": "allPosts",
      "outputs": [
        {
          "components": [
            {
              "internalType": "address",
              "name": "posterAddress",
              "type": "address"
            },
            {
              "internalType": "string",
              "name": "ipfsLink",
              "type": "string"
            }
          ],
          "internalType": "struct SocialMedia.Post[]",
          "name": "",
          "type": "tuple[]"
        }
      ],
      "stateMutability": "view",
      "type": "function"
    },
    {
      "inputs": [
        {
          "components": [
            {
              "internalType": "address",
              "name": "posterAddress",
              "type": "address"
            },
            {
              "internalType": "string",
              "name": "ipfsLink",
              "type": "string"
            }
          ],
          "internalType": "struct SocialMedia.Post",
          "name": "_newPost",
          "type": "tuple"
        }
      ],
      "name": "post",
      "outputs": [],
      "stateMutability": "nonpayable",
      "type": "function"
    }
  ],
  "transactionHash": "0xf96d8281dde487634a2a669074f2c9a12aed19f7091d779d5e66ea444a8df68a",
  "args": [],
  "numDeployments": 1,
  "solcInputHash": "fbf40de7322e649138cacd9b9f847bd8",
  "bytecode": "0x608060405234801561001057600080fd5b50610ab5806100206000396000f3fe608060405234801561001057600080fd5b50600436106100365760003560e01c80632a31d2121461003b578063eccc9dce14610057575b600080fd5b610055600480360381019061005091906103ea565b610075565b005b61005f6101d2565b60405161006c919061060c565b60405180910390f35b60006040518060400160405280836000016020810190610095919061065a565b73ffffffffffffffffffffffffffffffffffffffff1681526020018380602001906100c09190610696565b8080601f016020809104026020016040519081016040528093929190818152602001838380828437600081840152601f19601f82011690508083019250505050505050815250908060018154018082558091505060019003906000526020600020906002020160009091909190915060008201518160000160006101000a81548173ffffffffffffffffffffffffffffffffffffffff021916908373ffffffffffffffffffffffffffffffffffffffff1602179055506020820151816001019080519060200190610192929190610319565b5050507f883e195c23328bd9ebde8a3047af8b48c95ab7357f3f9c1cbb12521e090835e18160006040516101c7929190610a48565b60405180910390a150565b60606000805480602002602001604051908101604052809291908181526020016000905b8282101561031057838290600052602060002090600202016040518060400160405290816000820160009054906101000a900473ffffffffffffffffffffffffffffffffffffffff1673ffffffffffffffffffffffffffffffffffffffff1673ffffffffffffffffffffffffffffffffffffffff16815260200160018201805461027f906108a3565b80601f01602080910402602001604051908101604052809291908181526020018280546102ab906108a3565b80156102f85780601f106102cd576101008083540402835291602001916102f8565b820191906000526020600020905b8154815290600101906020018083116102db57829003601f168201915b505050505081525050815260200190600101906101f6565b50505050905090565b828054610325906108a3565b90600052602060002090601f016020900481019282610347576000855561038e565b82601f1061036057805160ff191683800117855561038e565b8280016001018555821561038e579182015b8281111561038d578251825591602001919060010190610372565b5b50905061039b919061039f565b5090565b5b808211156103b85760008160009055506001016103a0565b5090565b600080fd5b600080fd5b600080fd5b6000604082840312156103e1576103e06103c6565b5b81905092915050565b600060208284031215610400576103ff6103bc565b5b600082013567ffffffffffffffff81111561041e5761041d6103c1565b5b61042a848285016103cb565b91505092915050565b600081519050919050565b600082825260208201905092915050565b6000819050602082019050919050565b600073ffffffffffffffffffffffffffffffffffffffff82169050919050565b600061048a8261045f565b9050919050565b61049a8161047f565b82525050565b600081519050919050565b600082825260208201905092915050565b60005b838110156104da5780820151818401526020810190506104bf565b838111156104e9576000848401525b50505050565b6000601f19601f8301169050919050565b600061050b826104a0565b61051581856104ab565b93506105258185602086016104bc565b61052e816104ef565b840191505092915050565b60006040830160008301516105516000860182610491565b50602083015184820360208601526105698282610500565b9150508091505092915050565b60006105828383610539565b905092915050565b6000602082019050919050565b60006105a282610433565b6105ac818561043e565b9350836020820285016105be8561044f565b8060005b858110156105fa57848403895281516105db8582610576565b94506105e68361058a565b925060208a019950506001810190506105c2565b50829750879550505050505092915050565b600060208201905081810360008301526106268184610597565b905092915050565b6106378161047f565b811461064257600080fd5b50565b6000813590506106548161062e565b92915050565b6000602082840312156106705761066f6103bc565b5b600061067e84828501610645565b91505092915050565b600080fd5b600080fd5b600080fd5b600080833560016020038436030381126106b3576106b2610687565b5b80840192508235915067ffffffffffffffff8211156106d5576106d461068c565b5b6020830192506001820236038313156106f1576106f0610691565b5b509250929050565b60006107086020840184610645565b905092915050565b600080fd5b600080fd5b600080fd5b6000808335600160200384360303811261073c5761073b61071a565b5b83810192508235915060208301925067ffffffffffffffff82111561076457610763610710565b5b60018202360384131561077a57610779610715565b5b509250929050565b82818337600083830152505050565b600061079d83856104ab565b93506107aa838584610782565b6107b3836104ef565b840190509392505050565b6000604083016107d160008401846106f9565b6107de6000860182610491565b506107ec602084018461071f565b85830360208701526107ff838284610791565b925050508091505092915050565b600081549050919050565b60008190508160005260206000209050919050565b60008160001c9050919050565b600073ffffffffffffffffffffffffffffffffffffffff82169050919050565b600061086d6108688361082d565b61083a565b9050919050565b7f4e487b7100000000000000000000000000000000000000000000000000000000600052602260045260246000fd5b600060028204905060018216806108bb57607f821691505b602082108114156108cf576108ce610874565b5b50919050565b60008190508160005260206000209050919050565b600081546108f7816108a3565b61090181866104ab565b9450600182166000811461091c576001811461092e57610961565b60ff1983168652602086019350610961565b610937856108d5565b60005b838110156109595781548189015260018201915060208101905061093a565b808801955050505b50505092915050565b60006040830160008084015490506109818161085a565b61098e6000870182610491565b506001840185830360208701526109a583826108ea565b925050819250505092915050565b60006109bf838361096a565b905092915050565b6000600282019050919050565b60006109df8261080d565b6109e9818561043e565b9350836020820285016109fb85610818565b8060005b85811015610a3657848403895281610a1785826109b3565b9450610a22836109c7565b925060208a019950506001810190506109ff565b50829750879550505050505092915050565b60006040820190508181036000830152610a6281856107be565b90508181036020830152610a7681846109d4565b9050939250505056fea26469706673582212203a9533ce32685053788dc9663016169e00016dd68890d303e5efde624223414464736f6c63430008080033",
  "devdoc": {
    "kind": "dev",
    "methods": {},
    "version": 1
  },
  "userdoc": {
    "kind": "user",
    "methods": {},
    "version": 1
  },
  "storageLayout": {
    "storage": [
      {
        "astId": 14,
        "contract": "contracts/SocialMedia.sol:SocialMedia",
        "label": "posts",
        "offset": 0,
        "slot": "0",
        "type": "t_array(t_struct(Post)10_storage)dyn_storage"
      }
    ],
    "types": {
      "t_address": {
        "encoding": "inplace",
        "label": "address",
        "numberOfBytes": "20"
      },
      "t_array(t_struct(Post)10_storage)dyn_storage": {
        "base": "t_struct(Post)10_storage",
        "encoding": "dynamic_array",
        "label": "struct SocialMedia.Post[]",
        "numberOfBytes": "32"
      },
      "t_string_storage": {
        "encoding": "bytes",
        "label": "string",
        "numberOfBytes": "32"
      },
      "t_struct(Post)10_storage": {
        "encoding": "inplace",
        "label": "struct SocialMedia.Post",
        "members": [
          {
            "astId": 7,
            "contract": "contracts/SocialMedia.sol:SocialMedia",
            "label": "posterAddress",
            "offset": 0,
            "slot": "0",
            "type": "t_address"
          },
          {
            "astId": 9,
            "contract": "contracts/SocialMedia.sol:SocialMedia",
            "label": "ipfsLink",
            "offset": 0,
            "slot": "1",
            "type": "t_string_storage"
          }
        ],
        "numberOfBytes": "64"
      }
    }
  }
}